{
  "_format": "hh-sol-artifact-1",
  "contractName": "Elections2022",
  "sourceName": "contracts/Election.sol",
  "abi": [
    {
      "inputs": [],
      "stateMutability": "nonpayable",
      "type": "constructor"
    },
    {
      "anonymous": false,
      "inputs": [
        {
          "indexed": false,
          "internalType": "uint256",
          "name": "amount",
          "type": "uint256"
        }
      ],
      "name": "Bribe",
      "type": "event"
    },
    {
      "inputs": [],
      "name": "BalanceOf",
      "outputs": [
        {
          "internalType": "uint256",
          "name": "",
          "type": "uint256"
        }
      ],
      "stateMutability": "view",
      "type": "function"
    },
    {
      "inputs": [
        {
          "internalType": "enum Elections2022.candidates",
          "name": "_candidate",
          "type": "uint8"
        }
      ],
      "name": "GetVotesPerCandidate",
      "outputs": [
        {
          "internalType": "uint256",
          "name": "",
          "type": "uint256"
        }
      ],
      "stateMutability": "view",
      "type": "function"
    },
    {
      "inputs": [
        {
          "internalType": "enum Elections2022.candidates",
          "name": "_candidate",
          "type": "uint8"
        }
      ],
      "name": "GetVotesPerVoter",
      "outputs": [
        {
          "internalType": "uint256",
          "name": "",
          "type": "uint256"
        }
      ],
      "stateMutability": "view",
      "type": "function"
    },
    {
      "inputs": [],
      "name": "TOKEN",
      "outputs": [
        {
          "internalType": "uint256",
          "name": "",
          "type": "uint256"
        }
      ],
      "stateMutability": "view",
      "type": "function"
    },
    {
      "inputs": [
        {
          "internalType": "enum Elections2022.candidates",
          "name": "",
          "type": "uint8"
        }
      ],
      "name": "TotalVotesPerCandidates",
      "outputs": [
        {
          "internalType": "uint256",
          "name": "",
          "type": "uint256"
        }
      ],
      "stateMutability": "view",
      "type": "function"
    },
    {
      "inputs": [
        {
          "internalType": "enum Elections2022.candidates",
          "name": "_candidate",
          "type": "uint8"
        },
        {
          "internalType": "uint256",
          "name": "_number",
          "type": "uint256"
        }
      ],
      "name": "Vote",
      "outputs": [],
      "stateMutability": "payable",
      "type": "function"
    },
    {
      "inputs": [
        {
          "internalType": "address",
          "name": "",
          "type": "address"
        },
        {
          "internalType": "enum Elections2022.candidates",
          "name": "",
          "type": "uint8"
        }
      ],
      "name": "VoterToCandidate",
      "outputs": [
        {
          "internalType": "uint256",
          "name": "",
          "type": "uint256"
        }
      ],
      "stateMutability": "view",
      "type": "function"
    },
    {
      "inputs": [
        {
          "internalType": "bool",
          "name": "_sentiment",
          "type": "bool"
        },
        {
          "internalType": "enum Elections2022.candidates",
          "name": "_candidate",
          "type": "uint8"
        }
      ],
      "name": "editArticle",
      "outputs": [],
      "stateMutability": "payable",
      "type": "function"
    },
    {
      "inputs": [],
      "name": "getArticles",
      "outputs": [
        {
          "components": [
            {
              "internalType": "uint256",
              "name": "id",
              "type": "uint256"
            },
            {
              "internalType": "bool",
              "name": "sentiment",
              "type": "bool"
            },
            {
              "internalType": "uint256",
              "name": "date",
              "type": "uint256"
            },
            {
              "internalType": "enum Elections2022.candidates",
              "name": "candidate",
              "type": "uint8"
            }
          ],
          "internalType": "struct Elections2022.Articles[]",
          "name": "",
          "type": "tuple[]"
        }
      ],
      "stateMutability": "view",
      "type": "function"
    },
    {
      "inputs": [],
      "name": "getInfluence",
      "outputs": [
        {
          "components": [
            {
              "internalType": "uint256",
              "name": "judge",
              "type": "uint256"
            },
            {
              "internalType": "uint256",
              "name": "nudge",
              "type": "uint256"
            },
            {
              "internalType": "enum Elections2022.candidates",
              "name": "candidate",
              "type": "uint8"
            }
          ],
          "internalType": "struct Elections2022.influenceRecord[]",
          "name": "",
          "type": "tuple[]"
        }
      ],
      "stateMutability": "view",
      "type": "function"
    },
    {
      "inputs": [],
      "name": "getPresident",
      "outputs": [
        {
          "components": [
            {
              "internalType": "uint256",
              "name": "index",
              "type": "uint256"
            },
            {
              "internalType": "uint256",
              "name": "votes",
              "type": "uint256"
            }
          ],
          "internalType": "struct Elections2022.President",
          "name": "",
          "type": "tuple"
        }
      ],
      "stateMutability": "view",
      "type": "function"
    },
    {
      "inputs": [],
      "name": "getWhoEdited",
      "outputs": [
        {
          "components": [
            {
              "internalType": "bool",
              "name": "_sentiment",
              "type": "bool"
            },
            {
              "internalType": "uint256",
              "name": "date",
              "type": "uint256"
            },
            {
              "internalType": "enum Elections2022.candidates",
              "name": "_candidate",
              "type": "uint8"
            }
          ],
          "internalType": "struct Elections2022.VoterEdited[]",
          "name": "",
          "type": "tuple[]"
        }
      ],
      "stateMutability": "view",
      "type": "function"
    },
    {
      "inputs": [
        {
          "internalType": "address",
          "name": "user",
          "type": "address"
        }
      ],
      "name": "help",
      "outputs": [],
      "stateMutability": "payable",
      "type": "function"
    },
    {
      "inputs": [],
      "name": "howManyDoIget",
      "outputs": [
        {
          "internalType": "uint256",
          "name": "",
          "type": "uint256"
        }
      ],
      "stateMutability": "view",
      "type": "function"
    },
    {
      "inputs": [
        {
          "internalType": "uint256",
          "name": "_judge",
          "type": "uint256"
        },
        {
          "internalType": "enum Elections2022.candidates",
          "name": "_candidate",
          "type": "uint8"
        },
        {
          "internalType": "bool",
          "name": "_nudge",
          "type": "bool"
        }
      ],
      "name": "influence",
      "outputs": [],
      "stateMutability": "payable",
      "type": "function"
    },
    {
      "inputs": [],
      "name": "presidentElected",
      "outputs": [],
      "stateMutability": "payable",
      "type": "function"
    },
    {
      "inputs": [
        {
          "internalType": "address payable",
          "name": "_to",
          "type": "address"
        },
        {
          "internalType": "uint256",
          "name": "_amount",
          "type": "uint256"
        }
      ],
      "name": "withdrawToken",
      "outputs": [],
      "stateMutability": "nonpayable",
      "type": "function"
    },
    {
      "stateMutability": "payable",
      "type": "receive"
    }
  ],
  "bytecode": "0x60806040526000805563626476e1600155636265c8606002556001600355670de0b6b3a76400006004556000600560006101000a81548160ff021916908315150217905550604051806040016040528060008152602001600081525060066000820151816000015560208201518160010155505034801561007f57600080fd5b5033600f60006101000a81548173ffffffffffffffffffffffffffffffffffffffff021916908373ffffffffffffffffffffffffffffffffffffffff160217905550612e52806100d06000396000f3fe6080604052600436106101015760003560e01c80639a3174a011610095578063b161653d11610064578063b161653d14610303578063cd48c36714610340578063d42f9c8f1461035c578063da76f87c14610378578063e9b12409146103b557610108565b80639a3174a0146102475780639e281a9814610272578063a5e066561461029b578063ae8ff680146102d857610108565b806371ea3876116100d157806371ea38761461018957806382bfefc8146101c65780638f4eec16146101f157806398e8a82f1461021c57610108565b8062738d221461010d57806322646c93146101385780633bb5a925146101545780636529f44a1461015e57610108565b3661010857005b600080fd5b34801561011957600080fd5b506101226103d1565b60405161012f9190611c99565b60405180910390f35b610152600480360381019061014d9190611d17565b6103ff565b005b61015c610644565b005b34801561016a57600080fd5b5061017361090c565b6040516101809190611eda565b60405180910390f35b34801561019557600080fd5b506101b060048036038101906101ab9190611f21565b6109d5565b6040516101bd9190611f5d565b60405180910390f35b3480156101d257600080fd5b506101db6109ed565b6040516101e89190611f5d565b60405180910390f35b3480156101fd57600080fd5b506102066109f3565b6040516102139190612069565b60405180910390f35b34801561022857600080fd5b50610231610aef565b60405161023e9190611f5d565b60405180910390f35b34801561025357600080fd5b5061025c610bc7565b6040516102699190611f5d565b60405180910390f35b34801561027e57600080fd5b50610299600480360381019061029491906120f5565b610c5f565b005b3480156102a757600080fd5b506102c260048036038101906102bd9190612135565b611031565b6040516102cf9190611f5d565b60405180910390f35b3480156102e457600080fd5b506102ed611056565b6040516102fa9190612266565b60405180910390f35b34801561030f57600080fd5b5061032a60048036038101906103259190611f21565b611141565b6040516103379190611f5d565b60405180910390f35b61035a600480360381019061035591906122b4565b611182565b005b610376600480360381019061037191906122f4565b6113e1565b005b34801561038457600080fd5b5061039f600480360381019061039a9190611f21565b611943565b6040516103ac9190611f5d565b60405180910390f35b6103cf60048036038101906103ca9190612347565b6119c1565b005b6103d9611c37565b600660405180604001604052908160008201548152602001600182015481525050905090565b63626db1604211610445576040517f08c379a000000000000000000000000000000000000000000000000000000000815260040161043c906123e4565b60405180910390fd5b600f60009054906101000a900473ffffffffffffffffffffffffffffffffffffffff1673ffffffffffffffffffffffffffffffffffffffff163373ffffffffffffffffffffffffffffffffffffffff16146104d5576040517f08c379a00000000000000000000000000000000000000000000000000000000081526004016104cc90612450565b60405180910390fd5b6000600f60009054906101000a900473ffffffffffffffffffffffffffffffffffffffff1673ffffffffffffffffffffffffffffffffffffffff166105a7600a60008573ffffffffffffffffffffffffffffffffffffffff1673ffffffffffffffffffffffffffffffffffffffff1681526020019081526020016000206000600660000154600b81111561056c5761056b611d8b565b5b600b81111561057e5761057d611d8b565b5b600b8111156105905761058f611d8b565b5b815260200190815260200160002054600354611bbc565b6040516105b3906124a1565b60006040518083038185875af1925050503d80600081146105f0576040519150601f19603f3d011682016040523d82523d6000602084013e6105f5565b606091505b505090506001151581151514610640576040517f08c379a000000000000000000000000000000000000000000000000000000000815260040161063790612502565b60405180910390fd5b5050565b600154421015610689576040517f08c379a00000000000000000000000000000000000000000000000000000000081526004016106809061256e565b60405180910390fd5b600f60009054906101000a900473ffffffffffffffffffffffffffffffffffffffff1673ffffffffffffffffffffffffffffffffffffffff163373ffffffffffffffffffffffffffffffffffffffff1614610719576040517f08c379a0000000000000000000000000000000000000000000000000000000008152600401610710906125da565b60405180910390fd5b600060066001015414610761576040517f08c379a000000000000000000000000000000000000000000000000000000000815260040161075890612646565b60405180910390fd5b600f60009054906101000a900473ffffffffffffffffffffffffffffffffffffffff1673ffffffffffffffffffffffffffffffffffffffff166108fc6005476107aa91906126c4565b9081150290604051600060405180830381858888f193505050501580156107d5573d6000803e3d6000fd5b5060005b600b8110156108a9576006600101546009600083600b8111156107ff576107fe611d8b565b5b600b81111561081157610810611d8b565b5b600b81111561082357610822611d8b565b5b815260200190815260200160002054111561089657806006600001819055506009600082600b81111561085957610858611d8b565b5b600b81111561086b5761086a611d8b565b5b600b81111561087d5761087c611d8b565b5b8152602001908152602001600020546006600101819055505b80806108a1906126f5565b9150506107d9565b5060096000600660000154600b8111156108c6576108c5611d8b565b5b600b8111156108d8576108d7611d8b565b5b600b8111156108ea576108e9611d8b565b5b8152602001908152602001600020544761090491906126c4565b600381905550565b60606008805480602002602001604051908101604052809291908181526020016000905b828210156109cc5783829060005260206000209060040201604051806080016040529081600082015481526020016001820160009054906101000a900460ff16151515158152602001600282015481526020016003820160009054906101000a900460ff16600b8111156109a7576109a6611d8b565b5b600b8111156109b9576109b8611d8b565b5b8152505081526020019060010190610930565b50505050905090565b60096020528060005260406000206000915090505481565b60035481565b6060600d60003373ffffffffffffffffffffffffffffffffffffffff1673ffffffffffffffffffffffffffffffffffffffff168152602001908152602001600020805480602002602001604051908101604052809291908181526020016000905b82821015610ae657838290600052602060002090600302016040518060600160405290816000820160009054906101000a900460ff16151515158152602001600182015481526020016002820160009054906101000a900460ff16600b811115610ac157610ac0611d8b565b5b600b811115610ad357610ad2611d8b565b5b8152505081526020019060010190610a54565b50505050905090565b6000600254421015610b36576040517f08c379a0000000000000000000000000000000000000000000000000000000008152600401610b2d906127b0565b60405180910390fd5b600a60003373ffffffffffffffffffffffffffffffffffffffff1673ffffffffffffffffffffffffffffffffffffffff1681526020019081526020016000206000600660000154600b811115610b8f57610b8e611d8b565b5b600b811115610ba157610ba0611d8b565b5b600b811115610bb357610bb2611d8b565b5b815260200190815260200160002054905090565b6000600f60009054906101000a900473ffffffffffffffffffffffffffffffffffffffff1673ffffffffffffffffffffffffffffffffffffffff163373ffffffffffffffffffffffffffffffffffffffff1614610c59576040517f08c379a0000000000000000000000000000000000000000000000000000000008152600401610c509061281c565b60405180910390fd5b47905090565b600254421015610ca4576040517f08c379a0000000000000000000000000000000000000000000000000000000008152600401610c9b906127b0565b60405180910390fd5b6000600a60003373ffffffffffffffffffffffffffffffffffffffff1673ffffffffffffffffffffffffffffffffffffffff1681526020019081526020016000206000600660000154600b811115610cff57610cfe611d8b565b5b600b811115610d1157610d10611d8b565b5b600b811115610d2357610d22611d8b565b5b81526020019081526020016000205411610d3c57600080fd5b60008111610d7f576040517f08c379a0000000000000000000000000000000000000000000000000000000008152600401610d7690612888565b60405180910390fd5b600a60003373ffffffffffffffffffffffffffffffffffffffff1673ffffffffffffffffffffffffffffffffffffffff1681526020019081526020016000206000600660000154600b811115610dd857610dd7611d8b565b5b600b811115610dea57610de9611d8b565b5b600b811115610dfc57610dfb611d8b565b5b815260200190815260200160002054811115610e4d576040517f08c379a0000000000000000000000000000000000000000000000000000000008152600401610e44906128f4565b60405180910390fd5b600560009054906101000a900460ff1615610e9d576040517f08c379a0000000000000000000000000000000000000000000000000000000008152600401610e9490612960565b60405180910390fd5b6001600560006101000a81548160ff02191690831515021790555080600a60003373ffffffffffffffffffffffffffffffffffffffff1673ffffffffffffffffffffffffffffffffffffffff1681526020019081526020016000206000600660000154600b811115610f1257610f11611d8b565b5b600b811115610f2457610f23611d8b565b5b600b811115610f3657610f35611d8b565b5b81526020019081526020016000206000828254610f539190612980565b9250508190555060008273ffffffffffffffffffffffffffffffffffffffff16610f7f83600354611bbc565b604051610f8b906124a1565b60006040518083038185875af1925050503d8060008114610fc8576040519150601f19603f3d011682016040523d82523d6000602084013e610fcd565b606091505b5050905080611011576040517f08c379a000000000000000000000000000000000000000000000000000000000815260040161100890612a00565b60405180910390fd5b6000600560006101000a81548160ff021916908315150217905550505050565b600a602052816000526040600020602052806000526040600020600091509150505481565b6060600e60003373ffffffffffffffffffffffffffffffffffffffff1673ffffffffffffffffffffffffffffffffffffffff168152602001908152602001600020805480602002602001604051908101604052809291908181526020016000905b82821015611138578382906000526020600020906003020160405180606001604052908160008201548152602001600182015481526020016002820160009054906101000a900460ff16600b81111561111357611112611d8b565b5b600b81111561112557611124611d8b565b5b81525050815260200190600101906110b7565b50505050905090565b60006009600083600b81111561115a57611159611d8b565b5b600b81111561116c5761116b611d8b565b5b8152602001908152602001600020549050919050565b6001544211156111c7576040517f08c379a00000000000000000000000000000000000000000000000000000000081526004016111be90612a6c565b60405180910390fd5b600334101561120b576040517f08c379a000000000000000000000000000000000000000000000000000000000815260040161120290612ad8565b60405180910390fd5b600860405180608001604052806000548152602001841515815260200142815260200183600b81111561124157611240611d8b565b5b81525090806001815401808255809150506001900390600052602060002090600402016000909190919091506000820151816000015560208201518160010160006101000a81548160ff0219169083151502179055506040820151816002015560608201518160030160006101000a81548160ff0219169083600b8111156112cc576112cb611d8b565b5b02179055505050600d60003373ffffffffffffffffffffffffffffffffffffffff1673ffffffffffffffffffffffffffffffffffffffff1681526020019081526020016000206040518060600160405280841515815260200142815260200183600b81111561133e5761133d611d8b565b5b815250908060018154018082558091505060019003906000526020600020906003020160009091909190915060008201518160000160006101000a81548160ff0219169083151502179055506020820151816001015560408201518160020160006101000a81548160ff0219169083600b8111156113bf576113be611d8b565b5b021790555050506000808154809291906113d8906126f5565b91905055505050565b600154421115611426576040517f08c379a000000000000000000000000000000000000000000000000000000000815260040161141d90612a6c565b60405180910390fd5b61143d600260076114379190612af8565b84611bbc565b6004543461144b91906126c4565b101561148c576040517f08c379a000000000000000000000000000000000000000000000000000000000815260040161148390612b9e565b60405180910390fd5b600a83106114cf576040517f08c379a00000000000000000000000000000000000000000000000000000000081526004016114c690612c0a565b60405180910390fd5b60008311611512576040517f08c379a000000000000000000000000000000000000000000000000000000000815260040161150990612c0a565b60405180910390fd5b6000600260076115229190612af8565b6004543461153091906126c4565b61153a91906126c4565b905060001515821515141561176b576115538185611bbc565b6009600085600b81111561156a57611569611d8b565b5b600b81111561157c5761157b611d8b565b5b81526020019081526020016000205410156115cc576040517f08c379a00000000000000000000000000000000000000000000000000000000081526004016115c390612c76565b60405180910390fd5b6115d68185611bbc565b600c6000868152602001908152602001600020600085600b8111156115fe576115fd611d8b565b5b600b8111156116105761160f611d8b565b5b8152602001908152602001600020600082825461162d9190612ca0565b9250508190555061163e8185611bbc565b6009600085600b81111561165557611654611d8b565b5b600b81111561166757611666611d8b565b5b815260200190815260200160002060008282546116849190612980565b92505081905550600e60003373ffffffffffffffffffffffffffffffffffffffff1673ffffffffffffffffffffffffffffffffffffffff168152602001908152602001600020604051806060016040528086815260200183815260200185600b8111156116f4576116f3611d8b565b5b8152509080600181540180825580915050600190039060005260206000209060030201600090919091909150600082015181600001556020820151816001015560408201518160020160006101000a81548160ff0219169083600b81111561175f5761175e611d8b565b5b0217905550505061193d565b7f3cf04f8f797d3cffe9262896cc6364e5bbd54757ff2f069ce488ca87b6b4ecbb8160405161179a9190611f5d565b60405180910390a1600e60003373ffffffffffffffffffffffffffffffffffffffff1673ffffffffffffffffffffffffffffffffffffffff168152602001908152602001600020604051806060016040528086815260200183815260200185600b81111561180b5761180a611d8b565b5b8152509080600181540180825580915050600190039060005260206000209060030201600090919091909150600082015181600001556020820151816001015560408201518160020160006101000a81548160ff0219169083600b81111561187657611875611d8b565b5b021790555050506118878185611bbc565b600c6000868152602001908152602001600020600085600b8111156118af576118ae611d8b565b5b600b8111156118c1576118c0611d8b565b5b815260200190815260200160002060008282546118de9190612ca0565b925050819055506118ef8185611bbc565b6009600085600b81111561190657611905611d8b565b5b600b81111561191857611917611d8b565b5b815260200190815260200160002060008282546119359190612d34565b925050819055505b50505050565b6000600a60003373ffffffffffffffffffffffffffffffffffffffff1673ffffffffffffffffffffffffffffffffffffffff168152602001908152602001600020600083600b81111561199957611998611d8b565b5b600b8111156119ab576119aa611d8b565b5b8152602001908152602001600020549050919050565b600154421115611a06576040517f08c379a00000000000000000000000000000000000000000000000000000000081526004016119fd90612a6c565b60405180910390fd5b611a11600782611bbc565b341015611a53576040517f08c379a0000000000000000000000000000000000000000000000000000000008152600401611a4a90612ad8565b60405180910390fd5b806009600084600b811115611a6b57611a6a611d8b565b5b600b811115611a7d57611a7c611d8b565b5b81526020019081526020016000206000828254611a9a9190612d34565b9250508190555080600a60003373ffffffffffffffffffffffffffffffffffffffff1673ffffffffffffffffffffffffffffffffffffffff168152602001908152602001600020600084600b811115611af657611af5611d8b565b5b600b811115611b0857611b07611d8b565b5b81526020019081526020016000206000828254611b259190612d34565b925050819055506001600b600084600b811115611b4557611b44611d8b565b5b600b811115611b5757611b56611d8b565b5b815260200190815260200160002060003373ffffffffffffffffffffffffffffffffffffffff1673ffffffffffffffffffffffffffffffffffffffff1681526020019081526020016000206000828254611bb19190612d34565b925050819055505050565b600080831415611bcf5760009050611c31565b60008284611bdd9190612af8565b9050828482611bec91906126c4565b14611c2c576040517f08c379a0000000000000000000000000000000000000000000000000000000008152600401611c2390612dfc565b60405180910390fd5b809150505b92915050565b604051806040016040528060008152602001600081525090565b6000819050919050565b611c6481611c51565b82525050565b604082016000820151611c806000850182611c5b565b506020820151611c936020850182611c5b565b50505050565b6000604082019050611cae6000830184611c6a565b92915050565b600080fd5b600073ffffffffffffffffffffffffffffffffffffffff82169050919050565b6000611ce482611cb9565b9050919050565b611cf481611cd9565b8114611cff57600080fd5b50565b600081359050611d1181611ceb565b92915050565b600060208284031215611d2d57611d2c611cb4565b5b6000611d3b84828501611d02565b91505092915050565b600081519050919050565b600082825260208201905092915050565b6000819050602082019050919050565b60008115159050919050565b611d8581611d70565b82525050565b7f4e487b7100000000000000000000000000000000000000000000000000000000600052602160045260246000fd5b600c8110611dcb57611dca611d8b565b5b50565b6000819050611ddc82611dba565b919050565b6000611dec82611dce565b9050919050565b611dfc81611de1565b82525050565b608082016000820151611e186000850182611c5b565b506020820151611e2b6020850182611d7c565b506040820151611e3e6040850182611c5b565b506060820151611e516060850182611df3565b50505050565b6000611e638383611e02565b60808301905092915050565b6000602082019050919050565b6000611e8782611d44565b611e918185611d4f565b9350611e9c83611d60565b8060005b83811015611ecd578151611eb48882611e57565b9750611ebf83611e6f565b925050600181019050611ea0565b5085935050505092915050565b60006020820190508181036000830152611ef48184611e7c565b905092915050565b600c8110611f0957600080fd5b50565b600081359050611f1b81611efc565b92915050565b600060208284031215611f3757611f36611cb4565b5b6000611f4584828501611f0c565b91505092915050565b611f5781611c51565b82525050565b6000602082019050611f726000830184611f4e565b92915050565b600081519050919050565b600082825260208201905092915050565b6000819050602082019050919050565b606082016000820151611fba6000850182611d7c565b506020820151611fcd6020850182611c5b565b506040820151611fe06040850182611df3565b50505050565b6000611ff28383611fa4565b60608301905092915050565b6000602082019050919050565b600061201682611f78565b6120208185611f83565b935061202b83611f94565b8060005b8381101561205c5781516120438882611fe6565b975061204e83611ffe565b92505060018101905061202f565b5085935050505092915050565b60006020820190508181036000830152612083818461200b565b905092915050565b600061209682611cb9565b9050919050565b6120a68161208b565b81146120b157600080fd5b50565b6000813590506120c38161209d565b92915050565b6120d281611c51565b81146120dd57600080fd5b50565b6000813590506120ef816120c9565b92915050565b6000806040838503121561210c5761210b611cb4565b5b600061211a858286016120b4565b925050602061212b858286016120e0565b9150509250929050565b6000806040838503121561214c5761214b611cb4565b5b600061215a85828601611d02565b925050602061216b85828601611f0c565b9150509250929050565b600081519050919050565b600082825260208201905092915050565b6000819050602082019050919050565b6060820160008201516121b76000850182611c5b565b5060208201516121ca6020850182611c5b565b5060408201516121dd6040850182611df3565b50505050565b60006121ef83836121a1565b60608301905092915050565b6000602082019050919050565b600061221382612175565b61221d8185612180565b935061222883612191565b8060005b8381101561225957815161224088826121e3565b975061224b836121fb565b92505060018101905061222c565b5085935050505092915050565b600060208201905081810360008301526122808184612208565b905092915050565b61229181611d70565b811461229c57600080fd5b50565b6000813590506122ae81612288565b92915050565b600080604083850312156122cb576122ca611cb4565b5b60006122d98582860161229f565b92505060206122ea85828601611f0c565b9150509250929050565b60008060006060848603121561230d5761230c611cb4565b5b600061231b868287016120e0565b935050602061232c86828701611f0c565b925050604061233d8682870161229f565b9150509250925092565b6000806040838503121561235e5761235d611cb4565b5b600061236c85828601611f0c565b925050602061237d858286016120e0565b9150509250929050565b600082825260208201905092915050565b7f5761697420666f7220757365727320746f207769746864726177000000000000600082015250565b60006123ce601a83612387565b91506123d982612398565b602082019050919050565b600060208201905081810360008301526123fd816123c1565b9050919050565b7f596f75277265206e6f7420746865206f776e6572000000000000000000000000600082015250565b600061243a601483612387565b915061244582612404565b602082019050919050565b600060208201905081810360008301526124698161242d565b9050919050565b600081905092915050565b50565b600061248b600083612470565b91506124968261247b565b600082019050919050565b60006124ac8261247e565b9150819050919050565b7f6f7065726174696f6e206661696c656400000000000000000000000000000000600082015250565b60006124ec601083612387565b91506124f7826124b6565b602082019050919050565b6000602082019050818103600083015261251b816124df565b9050919050565b7f5761697420756e74696c20617072696c20746865203234746820000000000000600082015250565b6000612558601a83612387565b915061256382612522565b602082019050919050565b600060208201905081810360008301526125878161254b565b9050919050565b7f796f752077696c6c206861766520746f20776169742021000000000000000000600082015250565b60006125c4601783612387565b91506125cf8261258e565b602082019050919050565b600060208201905081810360008301526125f3816125b7565b9050919050565b7f416c726561647920656c65637465640000000000000000000000000000000000600082015250565b6000612630600f83612387565b915061263b826125fa565b602082019050919050565b6000602082019050818103600083015261265f81612623565b9050919050565b7f4e487b7100000000000000000000000000000000000000000000000000000000600052601260045260246000fd5b7f4e487b7100000000000000000000000000000000000000000000000000000000600052601160045260246000fd5b60006126cf82611c51565b91506126da83611c51565b9250826126ea576126e9612666565b5b828204905092915050565b600061270082611c51565b91507fffffffffffffffffffffffffffffffffffffffffffffffffffffffffffffffff82141561273357612732612695565b5b600182019050919050565b7f5761697420756e74696c2074686520707265736964656e742067657420656c6560008201527f6374656420210000000000000000000000000000000000000000000000000000602082015250565b600061279a602683612387565b91506127a58261273e565b604082019050919050565b600060208201905081810360008301526127c98161278d565b9050919050565b7f5761697420666f722074686520656c656374696f6e7300000000000000000000600082015250565b6000612806601683612387565b9150612811826127d0565b602082019050919050565b60006020820190508181036000830152612835816127f9565b9050919050565b7f7769746864726177206d6f726520210000000000000000000000000000000000600082015250565b6000612872600f83612387565b915061287d8261283c565b602082019050919050565b600060208201905081810360008301526128a181612865565b9050919050565b7f596f7520646f6e2774206861766520656e6f75676820746f6b656e7300000000600082015250565b60006128de601c83612387565b91506128e9826128a8565b602082019050919050565b6000602082019050818103600083015261290d816128d1565b9050919050565b7f4e6f207265656e7472616e637900000000000000000000000000000000000000600082015250565b600061294a600d83612387565b915061295582612914565b602082019050919050565b600060208201905081810360008301526129798161293d565b9050919050565b600061298b82611c51565b915061299683611c51565b9250828210156129a9576129a8612695565b5b828203905092915050565b7f4f7065726174696f6e206469646e277420737563636565640000000000000000600082015250565b60006129ea601883612387565b91506129f5826129b4565b602082019050919050565b60006020820190508181036000830152612a19816129dd565b9050919050565b7f4974277320746f6f206c61746500000000000000000000000000000000000000600082015250565b6000612a56600d83612387565b9150612a6182612a20565b602082019050919050565b60006020820190508181036000830152612a8581612a49565b9050919050565b7f6e6f7420656e6f7567682066756e640000000000000000000000000000000000600082015250565b6000612ac2600f83612387565b9150612acd82612a8c565b602082019050919050565b60006020820190508181036000830152612af181612ab5565b9050919050565b6000612b0382611c51565b9150612b0e83611c51565b9250817fffffffffffffffffffffffffffffffffffffffffffffffffffffffffffffffff0483118215151615612b4757612b46612695565b5b828202905092915050565b7f6e6f7420656e6f75676800000000000000000000000000000000000000000000600082015250565b6000612b88600a83612387565b9150612b9382612b52565b602082019050919050565b60006020820190508181036000830152612bb781612b7b565b9050919050565b7f54686973206a7564676520646f65736e27742065786973740000000000000000600082015250565b6000612bf4601883612387565b9150612bff82612bbe565b602082019050919050565b60006020820190508181036000830152612c2381612be7565b9050919050565b7f4c652063616e646964617420612074726f702070657520646520766f69780000600082015250565b6000612c60601e83612387565b9150612c6b82612c2a565b602082019050919050565b60006020820190508181036000830152612c8f81612c53565b9050919050565b6000819050919050565b6000612cab82612c96565b9150612cb683612c96565b9250827f800000000000000000000000000000000000000000000000000000000000000001821260008412151615612cf157612cf0612695565b5b827f7fffffffffffffffffffffffffffffffffffffffffffffffffffffffffffffff018213600084121615612d2957612d28612695565b5b828203905092915050565b6000612d3f82611c51565b9150612d4a83611c51565b9250827fffffffffffffffffffffffffffffffffffffffffffffffffffffffffffffffff03821115612d7f57612d7e612695565b5b828201905092915050565b7f536166654d6174683a206d756c7469706c69636174696f6e206f766572666c6f60008201527f7700000000000000000000000000000000000000000000000000000000000000602082015250565b6000612de6602183612387565b9150612df182612d8a565b604082019050919050565b60006020820190508181036000830152612e1581612dd9565b905091905056fea2646970667358221220c6f4d7b512f86cc16ab16f98ac194bca81459f00fceb760e47ff8624b35176df64736f6c63430008090033",
  "linkReferences": {},
  "deployedLinkReferences": {}
}